{
  "_format": "hh-sol-artifact-1",
  "contractName": "PropertyCrowdfund",
  "sourceName": "contracts/PropertyCrowdfund.sol",
  "abi": [
    {
      "inputs": [],
      "stateMutability": "nonpayable",
      "type": "constructor"
    },
    {
      "anonymous": false,
      "inputs": [
        {
          "indexed": true,
          "internalType": "uint256",
          "name": "propertyId",
          "type": "uint256"
        },
        {
          "indexed": true,
          "internalType": "address",
          "name": "from",
          "type": "address"
        },
        {
          "indexed": true,
          "internalType": "address",
          "name": "to",
          "type": "address"
        }
      ],
      "name": "OwnershipTransferred",
      "type": "event"
    },
    {
      "anonymous": false,
      "inputs": [
        {
          "indexed": true,
          "internalType": "uint256",
          "name": "propertyId",
          "type": "uint256"
        },
        {
          "indexed": true,
          "internalType": "address",
          "name": "buyer",
          "type": "address"
        }
      ],
      "name": "PropertyBoughtOut",
      "type": "event"
    },
    {
      "anonymous": false,
      "inputs": [
        {
          "indexed": true,
          "internalType": "uint256",
          "name": "propertyId",
          "type": "uint256"
        },
        {
          "indexed": false,
          "internalType": "address[]",
          "name": "investors",
          "type": "address[]"
        },
        {
          "indexed": false,
          "internalType": "uint256[]",
          "name": "shares",
          "type": "uint256[]"
        }
      ],
      "name": "PropertyFractionalized",
      "type": "event"
    },
    {
      "anonymous": false,
      "inputs": [
        {
          "indexed": true,
          "internalType": "uint256",
          "name": "propertyId",
          "type": "uint256"
        },
        {
          "indexed": true,
          "internalType": "address",
          "name": "owner",
          "type": "address"
        }
      ],
      "name": "PropertyListed",
      "type": "event"
    },
    {
      "anonymous": false,
      "inputs": [
        {
          "indexed": true,
          "internalType": "uint256",
          "name": "propertyId",
          "type": "uint256"
        },
        {
          "indexed": false,
          "internalType": "address[]",
          "name": "newInvestors",
          "type": "address[]"
        },
        {
          "indexed": false,
          "internalType": "uint256[]",
          "name": "newAmounts",
          "type": "uint256[]"
        }
      ],
      "name": "SharesRedistributed",
      "type": "event"
    },
    {
      "inputs": [],
      "name": "admin",
      "outputs": [
        {
          "internalType": "address",
          "name": "",
          "type": "address"
        }
      ],
      "stateMutability": "view",
      "type": "function"
    },
    {
      "inputs": [
        {
          "internalType": "uint256",
          "name": "propertyId",
          "type": "uint256"
        },
        {
          "internalType": "address[]",
          "name": "fromOwners",
          "type": "address[]"
        }
      ],
      "name": "buyFromMultiple",
      "outputs": [],
      "stateMutability": "payable",
      "type": "function"
    },
    {
      "inputs": [
        {
          "internalType": "uint256",
          "name": "propertyId",
          "type": "uint256"
        },
        {
          "internalType": "address[]",
          "name": "investors",
          "type": "address[]"
        },
        {
          "internalType": "uint256[]",
          "name": "amounts",
          "type": "uint256[]"
        }
      ],
      "name": "fractionalize",
      "outputs": [],
      "stateMutability": "nonpayable",
      "type": "function"
    },
    {
      "inputs": [
        {
          "internalType": "address",
          "name": "investor",
          "type": "address"
        },
        {
          "internalType": "uint256",
          "name": "propertyId",
          "type": "uint256"
        }
      ],
      "name": "getShare",
      "outputs": [
        {
          "internalType": "uint256",
          "name": "",
          "type": "uint256"
        }
      ],
      "stateMutability": "view",
      "type": "function"
    },
    {
      "inputs": [
        {
          "internalType": "uint256",
          "name": "price",
          "type": "uint256"
        }
      ],
      "name": "listProperty",
      "outputs": [
        {
          "internalType": "uint256",
          "name": "",
          "type": "uint256"
        }
      ],
      "stateMutability": "nonpayable",
      "type": "function"
    },
    {
      "inputs": [],
      "name": "nextPropertyId",
      "outputs": [
        {
          "internalType": "uint256",
          "name": "",
          "type": "uint256"
        }
      ],
      "stateMutability": "view",
      "type": "function"
    },
    {
      "inputs": [
        {
          "internalType": "uint256",
          "name": "",
          "type": "uint256"
        }
      ],
      "name": "properties",
      "outputs": [
        {
          "internalType": "uint256",
          "name": "id",
          "type": "uint256"
        },
        {
          "internalType": "enum PropertyCrowdfund.OwnershipType",
          "name": "ownershipType",
          "type": "uint8"
        },
        {
          "internalType": "address",
          "name": "currentOwner",
          "type": "address"
        },
        {
          "internalType": "uint256",
          "name": "totalShares",
          "type": "uint256"
        }
      ],
      "stateMutability": "view",
      "type": "function"
    },
    {
      "inputs": [
        {
          "internalType": "uint256",
          "name": "propertyId",
          "type": "uint256"
        },
        {
          "internalType": "address[]",
          "name": "newInvestors",
          "type": "address[]"
        },
        {
          "internalType": "uint256[]",
          "name": "newAmounts",
          "type": "uint256[]"
        }
      ],
      "name": "redistributeShares",
      "outputs": [],
      "stateMutability": "nonpayable",
      "type": "function"
    },
    {
      "inputs": [
        {
          "internalType": "uint256",
          "name": "",
          "type": "uint256"
        },
        {
          "internalType": "address",
          "name": "",
          "type": "address"
        }
      ],
      "name": "shares",
      "outputs": [
        {
          "internalType": "uint256",
          "name": "",
          "type": "uint256"
        }
      ],
      "stateMutability": "view",
      "type": "function"
    },
    {
      "inputs": [
        {
          "internalType": "uint256",
          "name": "propertyId",
          "type": "uint256"
        },
        {
          "internalType": "address",
          "name": "newOwner",
          "type": "address"
        }
      ],
      "name": "transferToSingleBuyer",
      "outputs": [],
      "stateMutability": "nonpayable",
      "type": "function"
    }
  ],
  "bytecode": "0x6080604052348015600f57600080fd5b5033600360006101000a81548173ffffffffffffffffffffffffffffffffffffffff021916908373ffffffffffffffffffffffffffffffffffffffff160217905550611c26806100606000396000f3fe6080604052600436106100915760003560e01c806382481d491161005957806382481d491461016c578063abf8c558146101a9578063b6aee1cf146101d2578063f7b108081461020f578063f851a4401461024f57610091565b806324a987be1461009657806339500f34146100b25780634c78b276146100dd57806356cc4efb1461011a57806362c013e814610143575b600080fd5b6100b060048036038101906100ab9190611265565b61027a565b005b3480156100be57600080fd5b506100c761056e565b6040516100d491906112d0565b60405180910390f35b3480156100e957600080fd5b5061010460048036038101906100ff91906112eb565b610574565b60405161011191906112d0565b60405180910390f35b34801561012657600080fd5b50610141600480360381019061013c91906113ee565b6105cf565b005b34801561014f57600080fd5b5061016a60048036038101906101659190611479565b610927565b005b34801561017857600080fd5b50610193600480360381019061018e9190611479565b610ba6565b6040516101a091906112d0565b60405180910390f35b3480156101b557600080fd5b506101d060048036038101906101cb91906113ee565b610bcb565b005b3480156101de57600080fd5b506101f960048036038101906101f491906114b9565b610e35565b60405161020691906112d0565b60405180910390f35b34801561021b57600080fd5b50610236600480360381019061023191906114b9565b610fe1565b604051610246949392919061156c565b60405180910390f35b34801561025b57600080fd5b5061026461103e565b60405161027191906115b1565b60405180910390f35b6001600281111561028e5761028d6114e6565b5b6001600084815260200190815260200160002060010160009054906101000a900460ff1660028111156102c4576102c36114e6565b5b14610304576040517f08c379a00000000000000000000000000000000000000000000000000000000081526004016102fb90611629565b60405180910390fd5b60005b815181101561043a57600060026000858152602001908152602001600020600084848151811061033a57610339611649565b5b602002602001015173ffffffffffffffffffffffffffffffffffffffff1673ffffffffffffffffffffffffffffffffffffffff16815260200190815260200160002054116103bd576040517f08c379a00000000000000000000000000000000000000000000000000000000081526004016103b4906116c4565b60405180910390fd5b60006002600085815260200190815260200160002060008484815181106103e7576103e6611649565b5b602002602001015173ffffffffffffffffffffffffffffffffffffffff1673ffffffffffffffffffffffffffffffffffffffff168152602001908152602001600020819055508080600101915050610307565b506127106002600084815260200190815260200160002060003373ffffffffffffffffffffffffffffffffffffffff1673ffffffffffffffffffffffffffffffffffffffff1681526020019081526020016000208190555060006001600084815260200190815260200160002060010160006101000a81548160ff021916908360028111156104cc576104cb6114e6565b5b0217905550336001600084815260200190815260200160002060010160016101000a81548173ffffffffffffffffffffffffffffffffffffffff021916908373ffffffffffffffffffffffffffffffffffffffff1602179055503373ffffffffffffffffffffffffffffffffffffffff16827f06e3d100b22973530c1739962eed868c0e54d06aad23262329c61b377dfb9a6b60405160405180910390a35050565b60005481565b60006002600083815260200190815260200160002060008473ffffffffffffffffffffffffffffffffffffffff1673ffffffffffffffffffffffffffffffffffffffff16815260200190815260200160002054905092915050565b600060028111156105e3576105e26114e6565b5b6001600085815260200190815260200160002060010160009054906101000a900460ff166002811115610619576106186114e6565b5b14610659576040517f08c379a000000000000000000000000000000000000000000000000000000000815260040161065090611730565b60405180910390fd5b6127106002600085815260200190815260200160002060003373ffffffffffffffffffffffffffffffffffffffff1673ffffffffffffffffffffffffffffffffffffffff16815260200190815260200160002054146106ed576040517f08c379a00000000000000000000000000000000000000000000000000000000081526004016106e4906117c2565b60405180910390fd5b60006002600085815260200190815260200160002060003373ffffffffffffffffffffffffffffffffffffffff1673ffffffffffffffffffffffffffffffffffffffff168152602001908152602001600020819055506000805b835181101561080e5782818151811061076357610762611649565b5b602002602001015160026000878152602001908152602001600020600086848151811061079357610792611649565b5b602002602001015173ffffffffffffffffffffffffffffffffffffffff1673ffffffffffffffffffffffffffffffffffffffff168152602001908152602001600020819055508281815181106107ec576107eb611649565b5b6020026020010151826107ff9190611811565b91508080600101915050610747565b506127108114610853576040517f08c379a000000000000000000000000000000000000000000000000000000000815260040161084a90611891565b60405180910390fd5b600180600086815260200190815260200160002060010160006101000a81548160ff0219169083600281111561088c5761088b6114e6565b5b021790555060006001600086815260200190815260200160002060010160016101000a81548173ffffffffffffffffffffffffffffffffffffffff021916908373ffffffffffffffffffffffffffffffffffffffff160217905550837f78aa7ab18ffe3d74e0ae2238ddffe2d5e0842fcf9f69c1da1140331578aa96008484604051610919929190611a2d565b60405180910390a250505050565b6000600281111561093b5761093a6114e6565b5b6001600084815260200190815260200160002060010160009054906101000a900460ff166002811115610971576109706114e6565b5b146109b1576040517f08c379a00000000000000000000000000000000000000000000000000000000081526004016109a890611730565b60405180910390fd5b6127106002600084815260200190815260200160002060003373ffffffffffffffffffffffffffffffffffffffff1673ffffffffffffffffffffffffffffffffffffffff1681526020019081526020016000205414610a45576040517f08c379a0000000000000000000000000000000000000000000000000000000008152600401610a3c90611ab0565b60405180910390fd5b60006002600084815260200190815260200160002060003373ffffffffffffffffffffffffffffffffffffffff1673ffffffffffffffffffffffffffffffffffffffff168152602001908152602001600020819055506127106002600084815260200190815260200160002060008373ffffffffffffffffffffffffffffffffffffffff1673ffffffffffffffffffffffffffffffffffffffff16815260200190815260200160002081905550806001600084815260200190815260200160002060010160016101000a81548173ffffffffffffffffffffffffffffffffffffffff021916908373ffffffffffffffffffffffffffffffffffffffff1602179055508073ffffffffffffffffffffffffffffffffffffffff163373ffffffffffffffffffffffffffffffffffffffff16837f16b85f49bf01212961345d3016c9a531894accf62eb7680f2045d79185cc0ec060405160405180910390a45050565b6002602052816000526040600020602052806000526040600020600091509150505481565b600360009054906101000a900473ffffffffffffffffffffffffffffffffffffffff1673ffffffffffffffffffffffffffffffffffffffff163373ffffffffffffffffffffffffffffffffffffffff1614610c5b576040517f08c379a0000000000000000000000000000000000000000000000000000000008152600401610c5290611b1c565b60405180910390fd5b60016002811115610c6f57610c6e6114e6565b5b6001600085815260200190815260200160002060010160009054906101000a900460ff166002811115610ca557610ca46114e6565b5b14610ce5576040517f08c379a0000000000000000000000000000000000000000000000000000000008152600401610cdc90611629565b60405180910390fd5b6000805b8351811015610db057828181518110610d0557610d04611649565b5b6020026020010151600260008781526020019081526020016000206000868481518110610d3557610d34611649565b5b602002602001015173ffffffffffffffffffffffffffffffffffffffff1673ffffffffffffffffffffffffffffffffffffffff16815260200190815260200160002081905550828181518110610d8e57610d8d611649565b5b602002602001015182610da19190611811565b91508080600101915050610ce9565b506127108114610df5576040517f08c379a0000000000000000000000000000000000000000000000000000000008152600401610dec90611b88565b60405180910390fd5b837fcb233df710a64682d7134dcfa75cf5c3ae6b8f658da1f7efa8b0fa139a543dc58484604051610e27929190611a2d565b60405180910390a250505050565b600080600080815480929190610e4a90611ba8565b919050559050604051806080016040528082815260200160006002811115610e7557610e746114e6565b5b81526020013373ffffffffffffffffffffffffffffffffffffffff168152602001612710815250600160008381526020019081526020016000206000820151816000015560208201518160010160006101000a81548160ff02191690836002811115610ee457610ee36114e6565b5b021790555060408201518160010160016101000a81548173ffffffffffffffffffffffffffffffffffffffff021916908373ffffffffffffffffffffffffffffffffffffffff160217905550606082015181600201559050506127106002600083815260200190815260200160002060003373ffffffffffffffffffffffffffffffffffffffff1673ffffffffffffffffffffffffffffffffffffffff168152602001908152602001600020819055503373ffffffffffffffffffffffffffffffffffffffff16817ff87f2a75e739b4da82608cb2e6016f1e1d5059321f8ea6869955aeba65012c7560405160405180910390a380915050919050565b60016020528060005260406000206000915090508060000154908060010160009054906101000a900460ff16908060010160019054906101000a900473ffffffffffffffffffffffffffffffffffffffff16908060020154905084565b600360009054906101000a900473ffffffffffffffffffffffffffffffffffffffff1681565b6000604051905090565b600080fd5b600080fd5b6000819050919050565b61108b81611078565b811461109657600080fd5b50565b6000813590506110a881611082565b92915050565b600080fd5b6000601f19601f8301169050919050565b7f4e487b7100000000000000000000000000000000000000000000000000000000600052604160045260246000fd5b6110fc826110b3565b810181811067ffffffffffffffff8211171561111b5761111a6110c4565b5b80604052505050565b600061112e611064565b905061113a82826110f3565b919050565b600067ffffffffffffffff82111561115a576111596110c4565b5b602082029050602081019050919050565b600080fd5b600073ffffffffffffffffffffffffffffffffffffffff82169050919050565b600061119b82611170565b9050919050565b6111ab81611190565b81146111b657600080fd5b50565b6000813590506111c8816111a2565b92915050565b60006111e16111dc8461113f565b611124565b905080838252602082019050602084028301858111156112045761120361116b565b5b835b8181101561122d578061121988826111b9565b845260208401935050602081019050611206565b5050509392505050565b600082601f83011261124c5761124b6110ae565b5b813561125c8482602086016111ce565b91505092915050565b6000806040838503121561127c5761127b61106e565b5b600061128a85828601611099565b925050602083013567ffffffffffffffff8111156112ab576112aa611073565b5b6112b785828601611237565b9150509250929050565b6112ca81611078565b82525050565b60006020820190506112e560008301846112c1565b92915050565b600080604083850312156113025761130161106e565b5b6000611310858286016111b9565b925050602061132185828601611099565b9150509250929050565b600067ffffffffffffffff821115611346576113456110c4565b5b602082029050602081019050919050565b600061136a6113658461132b565b611124565b9050808382526020820190506020840283018581111561138d5761138c61116b565b5b835b818110156113b657806113a28882611099565b84526020840193505060208101905061138f565b5050509392505050565b600082601f8301126113d5576113d46110ae565b5b81356113e5848260208601611357565b91505092915050565b6000806000606084860312156114075761140661106e565b5b600061141586828701611099565b935050602084013567ffffffffffffffff81111561143657611435611073565b5b61144286828701611237565b925050604084013567ffffffffffffffff81111561146357611462611073565b5b61146f868287016113c0565b9150509250925092565b600080604083850312156114905761148f61106e565b5b600061149e85828601611099565b92505060206114af858286016111b9565b9150509250929050565b6000602082840312156114cf576114ce61106e565b5b60006114dd84828501611099565b91505092915050565b7f4e487b7100000000000000000000000000000000000000000000000000000000600052602160045260246000fd5b60038110611526576115256114e6565b5b50565b600081905061153782611515565b919050565b600061154782611529565b9050919050565b6115578161153c565b82525050565b61156681611190565b82525050565b600060808201905061158160008301876112c1565b61158e602083018661154e565b61159b604083018561155d565b6115a860608301846112c1565b95945050505050565b60006020820190506115c6600083018461155d565b92915050565b600082825260208201905092915050565b7f4e6f742063726f776466756e6465640000000000000000000000000000000000600082015250565b6000611613600f836115cc565b915061161e826115dd565b602082019050919050565b6000602082019050818103600083015261164281611606565b9050919050565b7f4e487b7100000000000000000000000000000000000000000000000000000000600052603260045260246000fd5b7f4e6f7420616e206f776e65720000000000000000000000000000000000000000600082015250565b60006116ae600c836115cc565b91506116b982611678565b602082019050919050565b600060208201905081810360008301526116dd816116a1565b9050919050565b7f4e6f742073696e676c652d6f776e656400000000000000000000000000000000600082015250565b600061171a6010836115cc565b9150611725826116e4565b602082019050919050565b600060208201905081810360008301526117498161170d565b9050919050565b7f4f6e6c792066756c6c206f776e65722063616e206672616374696f6e616c697a60008201527f6500000000000000000000000000000000000000000000000000000000000000602082015250565b60006117ac6021836115cc565b91506117b782611750565b604082019050919050565b600060208201905081810360008301526117db8161179f565b9050919050565b7f4e487b7100000000000000000000000000000000000000000000000000000000600052601160045260246000fd5b600061181c82611078565b915061182783611078565b925082820190508082111561183f5761183e6117e2565b5b92915050565b7f546f74616c20736861726573206d75737420657175616c203130303030000000600082015250565b600061187b601d836115cc565b915061188682611845565b602082019050919050565b600060208201905081810360008301526118aa8161186e565b9050919050565b600081519050919050565b600082825260208201905092915050565b6000819050602082019050919050565b6118e681611190565b82525050565b60006118f883836118dd565b60208301905092915050565b6000602082019050919050565b600061191c826118b1565b61192681856118bc565b9350611931836118cd565b8060005b8381101561196257815161194988826118ec565b975061195483611904565b925050600181019050611935565b5085935050505092915050565b600081519050919050565b600082825260208201905092915050565b6000819050602082019050919050565b6119a481611078565b82525050565b60006119b6838361199b565b60208301905092915050565b6000602082019050919050565b60006119da8261196f565b6119e4818561197a565b93506119ef8361198b565b8060005b83811015611a20578151611a0788826119aa565b9750611a12836119c2565b9250506001810190506119f3565b5085935050505092915050565b60006040820190508181036000830152611a478185611911565b90508181036020830152611a5b81846119cf565b90509392505050565b7f4f6e6c792066756c6c206f776e65722063616e207472616e7366657200000000600082015250565b6000611a9a601c836115cc565b9150611aa582611a64565b602082019050919050565b60006020820190508181036000830152611ac981611a8d565b9050919050565b7f4f6e6c792061646d696e00000000000000000000000000000000000000000000600082015250565b6000611b06600a836115cc565b9150611b1182611ad0565b602082019050919050565b60006020820190508181036000830152611b3581611af9565b9050919050565b7f546f74616c206d75737420626520313030250000000000000000000000000000600082015250565b6000611b726012836115cc565b9150611b7d82611b3c565b602082019050919050565b60006020820190508181036000830152611ba181611b65565b9050919050565b6000611bb382611078565b91507fffffffffffffffffffffffffffffffffffffffffffffffffffffffffffffffff8203611be557611be46117e2565b5b60018201905091905056fea2646970667358221220846be20debe3275decc7366c5e0bea4a6331d921ddd44f760d79999281ec3aca64736f6c634300081c0033",
  "linkReferences": {},
  "deployedLinkReferences": {}
}