{
  "_format": "hh-sol-artifact-1",
  "contractName": "RealEstateToken",
  "sourceName": "contracts/RealEstateToken.sol",
  "abi": [
    {
      "inputs": [
        {
          "internalType": "string",
          "name": "name",
          "type": "string"
        },
        {
          "internalType": "string",
          "name": "symbol",
          "type": "string"
        },
        {
          "internalType": "address",
          "name": "_propertyContract",
          "type": "address"
        },
        {
          "internalType": "uint256",
          "name": "initialPrice",
          "type": "uint256"
        }
      ],
      "stateMutability": "nonpayable",
      "type": "constructor"
    },
    {
      "inputs": [
        {
          "internalType": "address",
          "name": "spender",
          "type": "address"
        },
        {
          "internalType": "uint256",
          "name": "allowance",
          "type": "uint256"
        },
        {
          "internalType": "uint256",
          "name": "needed",
          "type": "uint256"
        }
      ],
      "name": "ERC20InsufficientAllowance",
      "type": "error"
    },
    {
      "inputs": [
        {
          "internalType": "address",
          "name": "sender",
          "type": "address"
        },
        {
          "internalType": "uint256",
          "name": "balance",
          "type": "uint256"
        },
        {
          "internalType": "uint256",
          "name": "needed",
          "type": "uint256"
        }
      ],
      "name": "ERC20InsufficientBalance",
      "type": "error"
    },
    {
      "inputs": [
        {
          "internalType": "address",
          "name": "approver",
          "type": "address"
        }
      ],
      "name": "ERC20InvalidApprover",
      "type": "error"
    },
    {
      "inputs": [
        {
          "internalType": "address",
          "name": "receiver",
          "type": "address"
        }
      ],
      "name": "ERC20InvalidReceiver",
      "type": "error"
    },
    {
      "inputs": [
        {
          "internalType": "address",
          "name": "sender",
          "type": "address"
        }
      ],
      "name": "ERC20InvalidSender",
      "type": "error"
    },
    {
      "inputs": [
        {
          "internalType": "address",
          "name": "spender",
          "type": "address"
        }
      ],
      "name": "ERC20InvalidSpender",
      "type": "error"
    },
    {
      "inputs": [
        {
          "internalType": "address",
          "name": "owner",
          "type": "address"
        }
      ],
      "name": "OwnableInvalidOwner",
      "type": "error"
    },
    {
      "inputs": [
        {
          "internalType": "address",
          "name": "account",
          "type": "address"
        }
      ],
      "name": "OwnableUnauthorizedAccount",
      "type": "error"
    },
    {
      "anonymous": false,
      "inputs": [
        {
          "indexed": true,
          "internalType": "address",
          "name": "owner",
          "type": "address"
        },
        {
          "indexed": true,
          "internalType": "address",
          "name": "spender",
          "type": "address"
        },
        {
          "indexed": false,
          "internalType": "uint256",
          "name": "value",
          "type": "uint256"
        }
      ],
      "name": "Approval",
      "type": "event"
    },
    {
      "anonymous": false,
      "inputs": [
        {
          "indexed": true,
          "internalType": "address",
          "name": "previousOwner",
          "type": "address"
        },
        {
          "indexed": true,
          "internalType": "address",
          "name": "newOwner",
          "type": "address"
        }
      ],
      "name": "OwnershipTransferred",
      "type": "event"
    },
    {
      "anonymous": false,
      "inputs": [
        {
          "indexed": true,
          "internalType": "address",
          "name": "from",
          "type": "address"
        },
        {
          "indexed": true,
          "internalType": "address",
          "name": "to",
          "type": "address"
        },
        {
          "indexed": false,
          "internalType": "uint256",
          "name": "value",
          "type": "uint256"
        }
      ],
      "name": "Transfer",
      "type": "event"
    },
    {
      "inputs": [
        {
          "internalType": "address",
          "name": "owner",
          "type": "address"
        },
        {
          "internalType": "address",
          "name": "spender",
          "type": "address"
        }
      ],
      "name": "allowance",
      "outputs": [
        {
          "internalType": "uint256",
          "name": "",
          "type": "uint256"
        }
      ],
      "stateMutability": "view",
      "type": "function"
    },
    {
      "inputs": [
        {
          "internalType": "address",
          "name": "spender",
          "type": "address"
        },
        {
          "internalType": "uint256",
          "name": "value",
          "type": "uint256"
        }
      ],
      "name": "approve",
      "outputs": [
        {
          "internalType": "bool",
          "name": "",
          "type": "bool"
        }
      ],
      "stateMutability": "nonpayable",
      "type": "function"
    },
    {
      "inputs": [
        {
          "internalType": "address",
          "name": "account",
          "type": "address"
        }
      ],
      "name": "balanceOf",
      "outputs": [
        {
          "internalType": "uint256",
          "name": "",
          "type": "uint256"
        }
      ],
      "stateMutability": "view",
      "type": "function"
    },
    {
      "inputs": [],
      "name": "decimals",
      "outputs": [
        {
          "internalType": "uint8",
          "name": "",
          "type": "uint8"
        }
      ],
      "stateMutability": "view",
      "type": "function"
    },
    {
      "inputs": [
        {
          "internalType": "address",
          "name": "investor",
          "type": "address"
        },
        {
          "internalType": "uint256",
          "name": "amount",
          "type": "uint256"
        }
      ],
      "name": "mintTokens",
      "outputs": [],
      "stateMutability": "nonpayable",
      "type": "function"
    },
    {
      "inputs": [],
      "name": "name",
      "outputs": [
        {
          "internalType": "string",
          "name": "",
          "type": "string"
        }
      ],
      "stateMutability": "view",
      "type": "function"
    },
    {
      "inputs": [],
      "name": "owner",
      "outputs": [
        {
          "internalType": "address",
          "name": "",
          "type": "address"
        }
      ],
      "stateMutability": "view",
      "type": "function"
    },
    {
      "inputs": [],
      "name": "propertyContract",
      "outputs": [
        {
          "internalType": "address",
          "name": "",
          "type": "address"
        }
      ],
      "stateMutability": "view",
      "type": "function"
    },
    {
      "inputs": [],
      "name": "renounceOwnership",
      "outputs": [],
      "stateMutability": "nonpayable",
      "type": "function"
    },
    {
      "inputs": [
        {
          "internalType": "uint256",
          "name": "newPrice",
          "type": "uint256"
        }
      ],
      "name": "setTokenPrice",
      "outputs": [],
      "stateMutability": "nonpayable",
      "type": "function"
    },
    {
      "inputs": [],
      "name": "symbol",
      "outputs": [
        {
          "internalType": "string",
          "name": "",
          "type": "string"
        }
      ],
      "stateMutability": "view",
      "type": "function"
    },
    {
      "inputs": [],
      "name": "tokenPrice",
      "outputs": [
        {
          "internalType": "uint256",
          "name": "",
          "type": "uint256"
        }
      ],
      "stateMutability": "view",
      "type": "function"
    },
    {
      "inputs": [],
      "name": "totalSupply",
      "outputs": [
        {
          "internalType": "uint256",
          "name": "",
          "type": "uint256"
        }
      ],
      "stateMutability": "view",
      "type": "function"
    },
    {
      "inputs": [
        {
          "internalType": "address",
          "name": "to",
          "type": "address"
        },
        {
          "internalType": "uint256",
          "name": "value",
          "type": "uint256"
        }
      ],
      "name": "transfer",
      "outputs": [
        {
          "internalType": "bool",
          "name": "",
          "type": "bool"
        }
      ],
      "stateMutability": "nonpayable",
      "type": "function"
    },
    {
      "inputs": [
        {
          "internalType": "address",
          "name": "from",
          "type": "address"
        },
        {
          "internalType": "address",
          "name": "to",
          "type": "address"
        },
        {
          "internalType": "uint256",
          "name": "value",
          "type": "uint256"
        }
      ],
      "name": "transferFrom",
      "outputs": [
        {
          "internalType": "bool",
          "name": "",
          "type": "bool"
        }
      ],
      "stateMutability": "nonpayable",
      "type": "function"
    },
    {
      "inputs": [
        {
          "internalType": "address",
          "name": "newOwner",
          "type": "address"
        }
      ],
      "name": "transferOwnership",
      "outputs": [],
      "stateMutability": "nonpayable",
      "type": "function"
    }
  ],
  "bytecode": "0x608060405234801561001057600080fd5b50604051611a49380380611a49833981810160405281019061003291906103f9565b338484816003908161004491906106af565b50806004908161005491906106af565b505050600073ffffffffffffffffffffffffffffffffffffffff168173ffffffffffffffffffffffffffffffffffffffff16036100c95760006040517f1e4fbdf70000000000000000000000000000000000000000000000000000000081526004016100c09190610790565b60405180910390fd5b6100d88161012a60201b60201c565b5081600660006101000a81548173ffffffffffffffffffffffffffffffffffffffff021916908373ffffffffffffffffffffffffffffffffffffffff16021790555080600781905550505050506107ab565b6000600560009054906101000a900473ffffffffffffffffffffffffffffffffffffffff16905081600560006101000a81548173ffffffffffffffffffffffffffffffffffffffff021916908373ffffffffffffffffffffffffffffffffffffffff1602179055508173ffffffffffffffffffffffffffffffffffffffff168173ffffffffffffffffffffffffffffffffffffffff167f8be0079c531659141344cd1fd0a4f28419497f9722a3daafe3b4186f6b6457e060405160405180910390a35050565b6000604051905090565b600080fd5b600080fd5b600080fd5b600080fd5b6000601f19601f8301169050919050565b7f4e487b7100000000000000000000000000000000000000000000000000000000600052604160045260246000fd5b6102578261020e565b810181811067ffffffffffffffff821117156102765761027561021f565b5b80604052505050565b60006102896101f0565b9050610295828261024e565b919050565b600067ffffffffffffffff8211156102b5576102b461021f565b5b6102be8261020e565b9050602081019050919050565b60005b838110156102e95780820151818401526020810190506102ce565b60008484015250505050565b60006103086103038461029a565b61027f565b90508281526020810184848401111561032457610323610209565b5b61032f8482856102cb565b509392505050565b600082601f83011261034c5761034b610204565b5b815161035c8482602086016102f5565b91505092915050565b600073ffffffffffffffffffffffffffffffffffffffff82169050919050565b600061039082610365565b9050919050565b6103a081610385565b81146103ab57600080fd5b50565b6000815190506103bd81610397565b92915050565b6000819050919050565b6103d6816103c3565b81146103e157600080fd5b50565b6000815190506103f3816103cd565b92915050565b60008060008060808587031215610413576104126101fa565b5b600085015167ffffffffffffffff811115610431576104306101ff565b5b61043d87828801610337565b945050602085015167ffffffffffffffff81111561045e5761045d6101ff565b5b61046a87828801610337565b935050604061047b878288016103ae565b925050606061048c878288016103e4565b91505092959194509250565b600081519050919050565b7f4e487b7100000000000000000000000000000000000000000000000000000000600052602260045260246000fd5b600060028204905060018216806104ea57607f821691505b6020821081036104fd576104fc6104a3565b5b50919050565b60008190508160005260206000209050919050565b60006020601f8301049050919050565b600082821b905092915050565b6000600883026105657fffffffffffffffffffffffffffffffffffffffffffffffffffffffffffffffff82610528565b61056f8683610528565b95508019841693508086168417925050509392505050565b6000819050919050565b60006105ac6105a76105a2846103c3565b610587565b6103c3565b9050919050565b6000819050919050565b6105c683610591565b6105da6105d2826105b3565b848454610535565b825550505050565b600090565b6105ef6105e2565b6105fa8184846105bd565b505050565b5b8181101561061e576106136000826105e7565b600181019050610600565b5050565b601f8211156106635761063481610503565b61063d84610518565b8101602085101561064c578190505b61066061065885610518565b8301826105ff565b50505b505050565b600082821c905092915050565b600061068660001984600802610668565b1980831691505092915050565b600061069f8383610675565b9150826002028217905092915050565b6106b882610498565b67ffffffffffffffff8111156106d1576106d061021f565b5b6106db82546104d2565b6106e6828285610622565b600060209050601f8311600181146107195760008415610707578287015190505b6107118582610693565b865550610779565b601f19841661072786610503565b60005b8281101561074f5784890151825560018201915060208501945060208101905061072a565b8683101561076c5784890151610768601f891682610675565b8355505b6001600288020188555050505b505050505050565b61078a81610385565b82525050565b60006020820190506107a56000830184610781565b92915050565b61128f806107ba6000396000f3fe608060405234801561001057600080fd5b50600436106101005760003560e01c80637ff9b59611610097578063a9059cbb11610066578063a9059cbb1461028d578063dd62ed3e146102bd578063f0dda65c146102ed578063f2fde38b1461030957610100565b80637ff9b596146102155780638da5cb5b146102335780638fca96731461025157806395d89b411461026f57610100565b8063313ce567116100d3578063313ce567146101a15780636a61e5fc146101bf57806370a08231146101db578063715018a61461020b57610100565b806306fdde0314610105578063095ea7b31461012357806318160ddd1461015357806323b872dd14610171575b600080fd5b61010d610325565b60405161011a9190610eb6565b60405180910390f35b61013d60048036038101906101389190610f71565b6103b7565b60405161014a9190610fcc565b60405180910390f35b61015b6103da565b6040516101689190610ff6565b60405180910390f35b61018b60048036038101906101869190611011565b6103e4565b6040516101989190610fcc565b60405180910390f35b6101a9610413565b6040516101b69190611080565b60405180910390f35b6101d960048036038101906101d4919061109b565b61041c565b005b6101f560048036038101906101f091906110c8565b61042e565b6040516102029190610ff6565b60405180910390f35b610213610476565b005b61021d61048a565b60405161022a9190610ff6565b60405180910390f35b61023b610490565b6040516102489190611104565b60405180910390f35b6102596104ba565b6040516102669190611104565b60405180910390f35b6102776104e0565b6040516102849190610eb6565b60405180910390f35b6102a760048036038101906102a29190610f71565b610572565b6040516102b49190610fcc565b60405180910390f35b6102d760048036038101906102d2919061111f565b610595565b6040516102e49190610ff6565b60405180910390f35b61030760048036038101906103029190610f71565b61061c565b005b610323600480360381019061031e91906110c8565b610632565b005b6060600380546103349061118e565b80601f01602080910402602001604051908101604052809291908181526020018280546103609061118e565b80156103ad5780601f10610382576101008083540402835291602001916103ad565b820191906000526020600020905b81548152906001019060200180831161039057829003601f168201915b5050505050905090565b6000806103c26106b8565b90506103cf8185856106c0565b600191505092915050565b6000600254905090565b6000806103ef6106b8565b90506103fc8582856106d2565b610407858585610767565b60019150509392505050565b60006012905090565b61042461085b565b8060078190555050565b60008060008373ffffffffffffffffffffffffffffffffffffffff1673ffffffffffffffffffffffffffffffffffffffff168152602001908152602001600020549050919050565b61047e61085b565b61048860006108e2565b565b60075481565b6000600560009054906101000a900473ffffffffffffffffffffffffffffffffffffffff16905090565b600660009054906101000a900473ffffffffffffffffffffffffffffffffffffffff1681565b6060600480546104ef9061118e565b80601f016020809104026020016040519081016040528092919081815260200182805461051b9061118e565b80156105685780601f1061053d57610100808354040283529160200191610568565b820191906000526020600020905b81548152906001019060200180831161054b57829003601f168201915b5050505050905090565b60008061057d6106b8565b905061058a818585610767565b600191505092915050565b6000600160008473ffffffffffffffffffffffffffffffffffffffff1673ffffffffffffffffffffffffffffffffffffffff16815260200190815260200160002060008373ffffffffffffffffffffffffffffffffffffffff1673ffffffffffffffffffffffffffffffffffffffff16815260200190815260200160002054905092915050565b61062461085b565b61062e82826109a8565b5050565b61063a61085b565b600073ffffffffffffffffffffffffffffffffffffffff168173ffffffffffffffffffffffffffffffffffffffff16036106ac5760006040517f1e4fbdf70000000000000000000000000000000000000000000000000000000081526004016106a39190611104565b60405180910390fd5b6106b5816108e2565b50565b600033905090565b6106cd8383836001610a2a565b505050565b60006106de8484610595565b90507fffffffffffffffffffffffffffffffffffffffffffffffffffffffffffffffff8110156107615781811015610751578281836040517ffb8f41b2000000000000000000000000000000000000000000000000000000008152600401610748939291906111bf565b60405180910390fd5b61076084848484036000610a2a565b5b50505050565b600073ffffffffffffffffffffffffffffffffffffffff168373ffffffffffffffffffffffffffffffffffffffff16036107d95760006040517f96c6fd1e0000000000000000000000000000000000000000000000000000000081526004016107d09190611104565b60405180910390fd5b600073ffffffffffffffffffffffffffffffffffffffff168273ffffffffffffffffffffffffffffffffffffffff160361084b5760006040517fec442f050000000000000000000000000000000000000000000000000000000081526004016108429190611104565b60405180910390fd5b610856838383610c01565b505050565b6108636106b8565b73ffffffffffffffffffffffffffffffffffffffff16610881610490565b73ffffffffffffffffffffffffffffffffffffffff16146108e0576108a46106b8565b6040517f118cdaa70000000000000000000000000000000000000000000000000000000081526004016108d79190611104565b60405180910390fd5b565b6000600560009054906101000a900473ffffffffffffffffffffffffffffffffffffffff16905081600560006101000a81548173ffffffffffffffffffffffffffffffffffffffff021916908373ffffffffffffffffffffffffffffffffffffffff1602179055508173ffffffffffffffffffffffffffffffffffffffff168173ffffffffffffffffffffffffffffffffffffffff167f8be0079c531659141344cd1fd0a4f28419497f9722a3daafe3b4186f6b6457e060405160405180910390a35050565b600073ffffffffffffffffffffffffffffffffffffffff168273ffffffffffffffffffffffffffffffffffffffff1603610a1a5760006040517fec442f05000000000000000000000000000000000000000000000000000000008152600401610a119190611104565b60405180910390fd5b610a2660008383610c01565b5050565b600073ffffffffffffffffffffffffffffffffffffffff168473ffffffffffffffffffffffffffffffffffffffff1603610a9c5760006040517fe602df05000000000000000000000000000000000000000000000000000000008152600401610a939190611104565b60405180910390fd5b600073ffffffffffffffffffffffffffffffffffffffff168373ffffffffffffffffffffffffffffffffffffffff1603610b0e5760006040517f94280d62000000000000000000000000000000000000000000000000000000008152600401610b059190611104565b60405180910390fd5b81600160008673ffffffffffffffffffffffffffffffffffffffff1673ffffffffffffffffffffffffffffffffffffffff16815260200190815260200160002060008573ffffffffffffffffffffffffffffffffffffffff1673ffffffffffffffffffffffffffffffffffffffff168152602001908152602001600020819055508015610bfb578273ffffffffffffffffffffffffffffffffffffffff168473ffffffffffffffffffffffffffffffffffffffff167f8c5be1e5ebec7d5bd14f71427d1e84f3dd0314c0f7b2291e5b200ac8c7c3b92584604051610bf29190610ff6565b60405180910390a35b50505050565b600073ffffffffffffffffffffffffffffffffffffffff168373ffffffffffffffffffffffffffffffffffffffff1603610c53578060026000828254610c479190611225565b92505081905550610d26565b60008060008573ffffffffffffffffffffffffffffffffffffffff1673ffffffffffffffffffffffffffffffffffffffff16815260200190815260200160002054905081811015610cdf578381836040517fe450d38c000000000000000000000000000000000000000000000000000000008152600401610cd6939291906111bf565b60405180910390fd5b8181036000808673ffffffffffffffffffffffffffffffffffffffff1673ffffffffffffffffffffffffffffffffffffffff16815260200190815260200160002081905550505b600073ffffffffffffffffffffffffffffffffffffffff168273ffffffffffffffffffffffffffffffffffffffff1603610d6f5780600260008282540392505081905550610dbc565b806000808473ffffffffffffffffffffffffffffffffffffffff1673ffffffffffffffffffffffffffffffffffffffff168152602001908152602001600020600082825401925050819055505b8173ffffffffffffffffffffffffffffffffffffffff168373ffffffffffffffffffffffffffffffffffffffff167fddf252ad1be2c89b69c2b068fc378daa952ba7f163c4a11628f55a4df523b3ef83604051610e199190610ff6565b60405180910390a3505050565b600081519050919050565b600082825260208201905092915050565b60005b83811015610e60578082015181840152602081019050610e45565b60008484015250505050565b6000601f19601f8301169050919050565b6000610e8882610e26565b610e928185610e31565b9350610ea2818560208601610e42565b610eab81610e6c565b840191505092915050565b60006020820190508181036000830152610ed08184610e7d565b905092915050565b600080fd5b600073ffffffffffffffffffffffffffffffffffffffff82169050919050565b6000610f0882610edd565b9050919050565b610f1881610efd565b8114610f2357600080fd5b50565b600081359050610f3581610f0f565b92915050565b6000819050919050565b610f4e81610f3b565b8114610f5957600080fd5b50565b600081359050610f6b81610f45565b92915050565b60008060408385031215610f8857610f87610ed8565b5b6000610f9685828601610f26565b9250506020610fa785828601610f5c565b9150509250929050565b60008115159050919050565b610fc681610fb1565b82525050565b6000602082019050610fe16000830184610fbd565b92915050565b610ff081610f3b565b82525050565b600060208201905061100b6000830184610fe7565b92915050565b60008060006060848603121561102a57611029610ed8565b5b600061103886828701610f26565b935050602061104986828701610f26565b925050604061105a86828701610f5c565b9150509250925092565b600060ff82169050919050565b61107a81611064565b82525050565b60006020820190506110956000830184611071565b92915050565b6000602082840312156110b1576110b0610ed8565b5b60006110bf84828501610f5c565b91505092915050565b6000602082840312156110de576110dd610ed8565b5b60006110ec84828501610f26565b91505092915050565b6110fe81610efd565b82525050565b600060208201905061111960008301846110f5565b92915050565b6000806040838503121561113657611135610ed8565b5b600061114485828601610f26565b925050602061115585828601610f26565b9150509250929050565b7f4e487b7100000000000000000000000000000000000000000000000000000000600052602260045260246000fd5b600060028204905060018216806111a657607f821691505b6020821081036111b9576111b861115f565b5b50919050565b60006060820190506111d460008301866110f5565b6111e16020830185610fe7565b6111ee6040830184610fe7565b949350505050565b7f4e487b7100000000000000000000000000000000000000000000000000000000600052601160045260246000fd5b600061123082610f3b565b915061123b83610f3b565b9250828201905080821115611253576112526111f6565b5b9291505056fea26469706673582212208a02c4d07534bfc6826939af17fea47458ccbb688c72be8660f15d7fd7233ea864736f6c634300081c0033",
  "linkReferences": {},
  "deployedLinkReferences": {}
}