{
  "_format": "hh-sol-artifact-1",
  "contractName": "PropertyRegistry",
  "sourceName": "contracts/PropertyRegistry.sol",
  "abi": [
    {
      "anonymous": false,
      "inputs": [
        {
          "indexed": true,
          "internalType": "uint256",
          "name": "id",
          "type": "uint256"
        },
        {
          "indexed": false,
          "internalType": "address",
          "name": "newOwner",
          "type": "address"
        }
      ],
      "name": "OwnershipTransferred",
      "type": "event"
    },
    {
      "anonymous": false,
      "inputs": [
        {
          "indexed": true,
          "internalType": "uint256",
          "name": "id",
          "type": "uint256"
        },
        {
          "indexed": false,
          "internalType": "address",
          "name": "owner",
          "type": "address"
        }
      ],
      "name": "PropertyRegistered",
      "type": "event"
    },
    {
      "inputs": [
        {
          "internalType": "uint256",
          "name": "",
          "type": "uint256"
        }
      ],
      "name": "properties",
      "outputs": [
        {
          "internalType": "string",
          "name": "title",
          "type": "string"
        },
        {
          "internalType": "address",
          "name": "owner",
          "type": "address"
        },
        {
          "internalType": "uint256",
          "name": "value",
          "type": "uint256"
        },
        {
          "internalType": "bool",
          "name": "isTokenized",
          "type": "bool"
        }
      ],
      "stateMutability": "view",
      "type": "function"
    },
    {
      "inputs": [],
      "name": "propertyCount",
      "outputs": [
        {
          "internalType": "uint256",
          "name": "",
          "type": "uint256"
        }
      ],
      "stateMutability": "view",
      "type": "function"
    },
    {
      "inputs": [
        {
          "internalType": "string",
          "name": "title",
          "type": "string"
        },
        {
          "internalType": "uint256",
          "name": "value",
          "type": "uint256"
        }
      ],
      "name": "registerProperty",
      "outputs": [],
      "stateMutability": "nonpayable",
      "type": "function"
    },
    {
      "inputs": [
        {
          "internalType": "uint256",
          "name": "id",
          "type": "uint256"
        },
        {
          "internalType": "address",
          "name": "newOwner",
          "type": "address"
        }
      ],
      "name": "transferOwnership",
      "outputs": [],
      "stateMutability": "nonpayable",
      "type": "function"
    }
  ],
  "bytecode": "0x6080604052348015600f57600080fd5b50610c0e8061001f6000396000f3fe608060405234801561001057600080fd5b506004361061004c5760003560e01c806329507f73146100515780637c5397181461006d578063c361a33514610089578063f7b10808146100a7575b600080fd5b61006b600480360381019061006691906104ce565b6100da565b005b61008760048036038101906100829190610654565b61020d565b005b61009161033b565b60405161009e91906106bf565b60405180910390f35b6100c160048036038101906100bc91906106da565b610341565b6040516100d194939291906107b0565b60405180910390f35b3373ffffffffffffffffffffffffffffffffffffffff1660008084815260200190815260200160002060010160009054906101000a900473ffffffffffffffffffffffffffffffffffffffff1673ffffffffffffffffffffffffffffffffffffffff161461017d576040517f08c379a000000000000000000000000000000000000000000000000000000000815260040161017490610848565b60405180910390fd5b8060008084815260200190815260200160002060010160006101000a81548173ffffffffffffffffffffffffffffffffffffffff021916908373ffffffffffffffffffffffffffffffffffffffff160217905550817fba8cc72bdfdb4f3e2281c3f17f6be90c470f76dd1106321a2928859835874bc2826040516102019190610868565b60405180910390a25050565b60016000815480929190610220906108b2565b919050555060405180608001604052808381526020013373ffffffffffffffffffffffffffffffffffffffff16815260200182815260200160001515815250600080600154815260200190815260200160002060008201518160000190816102889190610b06565b5060208201518160010160006101000a81548173ffffffffffffffffffffffffffffffffffffffff021916908373ffffffffffffffffffffffffffffffffffffffff1602179055506040820151816002015560608201518160030160006101000a81548160ff0219169083151502179055509050506001547ff16e2a0ca5373d3b3c5e53640bf2953ea25184f229ba20d421b5fc6a635e39453360405161032f9190610868565b60405180910390a25050565b60015481565b600060205280600052604060002060009150905080600001805461036490610929565b80601f016020809104026020016040519081016040528092919081815260200182805461039090610929565b80156103dd5780601f106103b2576101008083540402835291602001916103dd565b820191906000526020600020905b8154815290600101906020018083116103c057829003601f168201915b5050505050908060010160009054906101000a900473ffffffffffffffffffffffffffffffffffffffff16908060020154908060030160009054906101000a900460ff16905084565b6000604051905090565b600080fd5b600080fd5b6000819050919050565b61044d8161043a565b811461045857600080fd5b50565b60008135905061046a81610444565b92915050565b600073ffffffffffffffffffffffffffffffffffffffff82169050919050565b600061049b82610470565b9050919050565b6104ab81610490565b81146104b657600080fd5b50565b6000813590506104c8816104a2565b92915050565b600080604083850312156104e5576104e4610430565b5b60006104f38582860161045b565b9250506020610504858286016104b9565b9150509250929050565b600080fd5b600080fd5b6000601f19601f8301169050919050565b7f4e487b7100000000000000000000000000000000000000000000000000000000600052604160045260246000fd5b61056182610518565b810181811067ffffffffffffffff821117156105805761057f610529565b5b80604052505050565b6000610593610426565b905061059f8282610558565b919050565b600067ffffffffffffffff8211156105bf576105be610529565b5b6105c882610518565b9050602081019050919050565b82818337600083830152505050565b60006105f76105f2846105a4565b610589565b90508281526020810184848401111561061357610612610513565b5b61061e8482856105d5565b509392505050565b600082601f83011261063b5761063a61050e565b5b813561064b8482602086016105e4565b91505092915050565b6000806040838503121561066b5761066a610430565b5b600083013567ffffffffffffffff81111561068957610688610435565b5b61069585828601610626565b92505060206106a68582860161045b565b9150509250929050565b6106b98161043a565b82525050565b60006020820190506106d460008301846106b0565b92915050565b6000602082840312156106f0576106ef610430565b5b60006106fe8482850161045b565b91505092915050565b600081519050919050565b600082825260208201905092915050565b60005b83811015610741578082015181840152602081019050610726565b60008484015250505050565b600061075882610707565b6107628185610712565b9350610772818560208601610723565b61077b81610518565b840191505092915050565b61078f81610490565b82525050565b60008115159050919050565b6107aa81610795565b82525050565b600060808201905081810360008301526107ca818761074d565b90506107d96020830186610786565b6107e660408301856106b0565b6107f360608301846107a1565b95945050505050565b7f4e6f74206f776e65720000000000000000000000000000000000000000000000600082015250565b6000610832600983610712565b915061083d826107fc565b602082019050919050565b6000602082019050818103600083015261086181610825565b9050919050565b600060208201905061087d6000830184610786565b92915050565b7f4e487b7100000000000000000000000000000000000000000000000000000000600052601160045260246000fd5b60006108bd8261043a565b91507fffffffffffffffffffffffffffffffffffffffffffffffffffffffffffffffff82036108ef576108ee610883565b5b600182019050919050565b7f4e487b7100000000000000000000000000000000000000000000000000000000600052602260045260246000fd5b6000600282049050600182168061094157607f821691505b602082108103610954576109536108fa565b5b50919050565b60008190508160005260206000209050919050565b60006020601f8301049050919050565b600082821b905092915050565b6000600883026109bc7fffffffffffffffffffffffffffffffffffffffffffffffffffffffffffffffff8261097f565b6109c6868361097f565b95508019841693508086168417925050509392505050565b6000819050919050565b6000610a036109fe6109f98461043a565b6109de565b61043a565b9050919050565b6000819050919050565b610a1d836109e8565b610a31610a2982610a0a565b84845461098c565b825550505050565b600090565b610a46610a39565b610a51818484610a14565b505050565b5b81811015610a7557610a6a600082610a3e565b600181019050610a57565b5050565b601f821115610aba57610a8b8161095a565b610a948461096f565b81016020851015610aa3578190505b610ab7610aaf8561096f565b830182610a56565b50505b505050565b600082821c905092915050565b6000610add60001984600802610abf565b1980831691505092915050565b6000610af68383610acc565b9150826002028217905092915050565b610b0f82610707565b67ffffffffffffffff811115610b2857610b27610529565b5b610b328254610929565b610b3d828285610a79565b600060209050601f831160018114610b705760008415610b5e578287015190505b610b688582610aea565b865550610bd0565b601f198416610b7e8661095a565b60005b82811015610ba657848901518255600182019150602085019450602081019050610b81565b86831015610bc35784890151610bbf601f891682610acc565b8355505b6001600288020188555050505b50505050505056fea264697066735822122063081fe8d5f9f5e34dcd441d3a8962a38ed8c3a38507d85d9124ebceb4db176a64736f6c634300081c0033",
  "linkReferences": {},
  "deployedLinkReferences": {}
}